{
	"contracts/DailyCheckInAttestation.sol": {
		"DailyCheckInAttestation": {
			"abi": [
				{
					"inputs": [
						{
							"internalType": "address",
							"name": "_gmmc",
							"type": "address"
						},
						{
							"internalType": "address",
							"name": "_owner",
							"type": "address"
						}
					],
					"stateMutability": "nonpayable",
					"type": "constructor"
				},
				{
					"anonymous": false,
					"inputs": [
						{
							"indexed": true,
							"internalType": "address",
							"name": "user",
							"type": "address"
						},
						{
							"indexed": false,
							"internalType": "uint256",
							"name": "day",
							"type": "uint256"
						},
						{
							"indexed": false,
							"internalType": "uint256",
							"name": "streak",
							"type": "uint256"
						},
						{
							"indexed": false,
							"internalType": "uint256",
							"name": "total",
							"type": "uint256"
						}
					],
					"name": "CheckedIn",
					"type": "event"
				},
				{
					"inputs": [],
					"name": "DAY",
					"outputs": [
						{
							"internalType": "uint256",
							"name": "",
							"type": "uint256"
						}
					],
					"stateMutability": "view",
					"type": "function"
				},
				{
					"inputs": [],
					"name": "GMMC",
					"outputs": [
						{
							"internalType": "contract IERC20",
							"name": "",
							"type": "address"
						}
					],
					"stateMutability": "view",
					"type": "function"
				},
				{
					"inputs": [],
					"name": "checkIn",
					"outputs": [],
					"stateMutability": "nonpayable",
					"type": "function"
				},
				{
					"inputs": [
						{
							"internalType": "address",
							"name": "",
							"type": "address"
						}
					],
					"name": "checkIns",
					"outputs": [
						{
							"internalType": "uint256",
							"name": "lastDay",
							"type": "uint256"
						},
						{
							"internalType": "uint256",
							"name": "streak",
							"type": "uint256"
						},
						{
							"internalType": "uint256",
							"name": "total",
							"type": "uint256"
						}
					],
					"stateMutability": "view",
					"type": "function"
				},
				{
					"inputs": [],
					"name": "owner",
					"outputs": [
						{
							"internalType": "address",
							"name": "",
							"type": "address"
						}
					],
					"stateMutability": "view",
					"type": "function"
				},
				{
					"inputs": [],
					"name": "rewardAmount",
					"outputs": [
						{
							"internalType": "uint256",
							"name": "",
							"type": "uint256"
						}
					],
					"stateMutability": "view",
					"type": "function"
				},
				{
					"inputs": [
						{
							"internalType": "uint256",
							"name": "amount",
							"type": "uint256"
						}
					],
					"name": "setReward",
					"outputs": [],
					"stateMutability": "nonpayable",
					"type": "function"
				}
			],
			"devdoc": {
				"kind": "dev",
				"methods": {},
				"version": 1
			},
			"evm": {
				"assembly": "    /* \"contracts/DailyCheckInAttestation.sol\":155:1391  contract DailyCheckInAttestation {... */\n  mstore(0x40, 0xa0)\n    /* \"contracts/DailyCheckInAttestation.sol\":327:335  5 * 1e18 */\n  0x4563918244f40000\n    /* \"contracts/DailyCheckInAttestation.sol\":297:335  uint256 public rewardAmount = 5 * 1e18 */\n  0x01\n  sstore\n    /* \"contracts/DailyCheckInAttestation.sol\":714:818  constructor(address _gmmc, address _owner) {... */\n  callvalue\n  dup1\n  iszero\n  tag_1\n  jumpi\n  0x00\n  dup1\n  revert\ntag_1:\n  pop\n  mload(0x40)\n  sub(codesize, bytecodeSize)\n  dup1\n  bytecodeSize\n  dup4\n  codecopy\n  dup2\n  add\n  0x40\n  dup2\n  swap1\n  mstore\n  tag_2\n  swap2\n  tag_3\n  jump\t// in\ntag_2:\n  sub(shl(0xa0, 0x01), 0x01)\n    /* \"contracts/DailyCheckInAttestation.sol\":767:787  GMMC = IERC20(_gmmc) */\n  swap2\n  dup3\n  and\n  0x80\n  mstore\n    /* \"contracts/DailyCheckInAttestation.sol\":797:802  owner */\n  0x00\n    /* \"contracts/DailyCheckInAttestation.sol\":797:811  owner = _owner */\n  dup1\n  sload\n  not(sub(shl(0xa0, 0x01), 0x01))\n  and\n  swap2\n  swap1\n  swap3\n  and\n  or\n  swap1\n  sstore\n    /* \"contracts/DailyCheckInAttestation.sol\":155:1391  contract DailyCheckInAttestation {... */\n  jump(tag_8)\n    /* \"#utility.yul\":14:191   */\ntag_7:\n    /* \"#utility.yul\":93:106   */\n  dup1\n  mload\n  sub(shl(0xa0, 0x01), 0x01)\n    /* \"#utility.yul\":135:166   */\n  dup2\n  and\n    /* \"#utility.yul\":125:167   */\n  dup2\n  eq\n    /* \"#utility.yul\":115:185   */\n  tag_10\n  jumpi\n    /* \"#utility.yul\":181:182   */\n  0x00\n    /* \"#utility.yul\":178:179   */\n  dup1\n    /* \"#utility.yul\":171:183   */\n  revert\n    /* \"#utility.yul\":115:185   */\ntag_10:\n    /* \"#utility.yul\":14:191   */\n  swap2\n  swap1\n  pop\n  jump\t// out\n    /* \"#utility.yul\":196:489   */\ntag_3:\n    /* \"#utility.yul\":275:281   */\n  0x00\n    /* \"#utility.yul\":283:289   */\n  dup1\n    /* \"#utility.yul\":336:338   */\n  0x40\n    /* \"#utility.yul\":324:333   */\n  dup4\n    /* \"#utility.yul\":315:322   */\n  dup6\n    /* \"#utility.yul\":311:334   */\n  sub\n    /* \"#utility.yul\":307:339   */\n  slt\n    /* \"#utility.yul\":304:356   */\n  iszero\n  tag_12\n  jumpi\n    /* \"#utility.yul\":352:353   */\n  0x00\n    /* \"#utility.yul\":349:350   */\n  dup1\n    /* \"#utility.yul\":342:354   */\n  revert\n    /* \"#utility.yul\":304:356   */\ntag_12:\n    /* \"#utility.yul\":375:415   */\n  tag_13\n    /* \"#utility.yul\":405:414   */\n  dup4\n    /* \"#utility.yul\":375:415   */\n  tag_7\n  jump\t// in\ntag_13:\n    /* \"#utility.yul\":365:415   */\n  swap2\n  pop\n    /* \"#utility.yul\":434:483   */\n  tag_14\n    /* \"#utility.yul\":479:481   */\n  0x20\n    /* \"#utility.yul\":468:477   */\n  dup5\n    /* \"#utility.yul\":464:482   */\n  add\n    /* \"#utility.yul\":434:483   */\n  tag_7\n  jump\t// in\ntag_14:\n    /* \"#utility.yul\":424:483   */\n  swap1\n  pop\n    /* \"#utility.yul\":196:489   */\n  swap3\n  pop\n  swap3\n  swap1\n  pop\n  jump\t// out\ntag_8:\n    /* \"contracts/DailyCheckInAttestation.sol\":155:1391  contract DailyCheckInAttestation {... */\n  mload(0x80)\n  codecopy(0x00, dataOffset(sub_0), dataSize(sub_0))\n  0x00\n  assignImmutable(\"0x5c4c6aa067b6f8e6cb38e6ab843832a94d1712d661a04d73c517d6a1931a9e5d\")\n  return(0x00, dataSize(sub_0))\nstop\n\nsub_0: assembly {\n        /* \"contracts/DailyCheckInAttestation.sol\":155:1391  contract DailyCheckInAttestation {... */\n      mstore(0x40, 0x80)\n      callvalue\n      dup1\n      iszero\n      tag_1\n      jumpi\n      0x00\n      dup1\n      revert\n    tag_1:\n      pop\n      jumpi(tag_2, lt(calldatasize, 0x04))\n      shr(0xe0, calldataload(0x00))\n      dup1\n      0x293be456\n      gt\n      tag_10\n      jumpi\n      dup1\n      0x293be456\n      eq\n      tag_6\n      jumpi\n      dup1\n      0x6c82da76\n      eq\n      tag_7\n      jumpi\n      dup1\n      0x8da5cb5b\n      eq\n      tag_8\n      jumpi\n      dup1\n      0xf7b2a7be\n      eq\n      tag_9\n      jumpi\n      0x00\n      dup1\n      revert\n    tag_10:\n      dup1\n      0x183ff085\n      eq\n      tag_3\n      jumpi\n      dup1\n      0x1acc9b62\n      eq\n      tag_4\n      jumpi\n      dup1\n      0x27cfe856\n      eq\n      tag_5\n      jumpi\n    tag_2:\n      0x00\n      dup1\n      revert\n        /* \"contracts/DailyCheckInAttestation.sol\":824:1291  function checkIn() external {... */\n    tag_3:\n      tag_11\n      tag_12\n      jump\t// in\n    tag_11:\n      stop\n        /* \"contracts/DailyCheckInAttestation.sol\":442:485  mapping(address => CheckIn) public checkIns */\n    tag_4:\n      tag_13\n      tag_14\n      calldatasize\n      0x04\n      tag_15\n      jump\t// in\n    tag_14:\n      0x02\n      0x20\n      dup2\n      swap1\n      mstore\n      0x00\n      swap2\n      dup3\n      mstore\n      0x40\n      swap1\n      swap2\n      keccak256\n      dup1\n      sload\n      0x01\n      dup3\n      add\n      sload\n      swap2\n      swap1\n      swap3\n      add\n      sload\n      dup4\n      jump\n    tag_13:\n      0x40\n      dup1\n      mload\n        /* \"#utility.yul\":507:532   */\n      swap4\n      dup5\n      mstore\n        /* \"#utility.yul\":563:565   */\n      0x20\n        /* \"#utility.yul\":548:566   */\n      dup5\n      add\n        /* \"#utility.yul\":541:575   */\n      swap3\n      swap1\n      swap3\n      mstore\n        /* \"#utility.yul\":591:609   */\n      swap1\n      dup3\n      add\n        /* \"#utility.yul\":584:618   */\n      mstore\n        /* \"#utility.yul\":495:497   */\n      0x60\n        /* \"#utility.yul\":480:498   */\n      add\n        /* \"contracts/DailyCheckInAttestation.sol\":442:485  mapping(address => CheckIn) public checkIns */\n    tag_17:\n      mload(0x40)\n      dup1\n      swap2\n      sub\n      swap1\n      return\n        /* \"contracts/DailyCheckInAttestation.sol\":255:291  uint256 public constant DAY = 1 days */\n    tag_5:\n      tag_19\n        /* \"contracts/DailyCheckInAttestation.sol\":285:291  1 days */\n      0x015180\n        /* \"contracts/DailyCheckInAttestation.sol\":255:291  uint256 public constant DAY = 1 days */\n      dup2\n      jump\n    tag_19:\n      mload(0x40)\n        /* \"#utility.yul\":775:800   */\n      swap1\n      dup2\n      mstore\n        /* \"#utility.yul\":763:765   */\n      0x20\n        /* \"#utility.yul\":748:766   */\n      add\n        /* \"contracts/DailyCheckInAttestation.sol\":255:291  uint256 public constant DAY = 1 days */\n      tag_17\n        /* \"#utility.yul\":629:806   */\n      jump\n        /* \"contracts/DailyCheckInAttestation.sol\":1297:1389  function setReward(uint256 amount) external onlyOwner {... */\n    tag_6:\n      tag_11\n      tag_24\n      calldatasize\n      0x04\n      tag_25\n      jump\t// in\n    tag_24:\n      tag_26\n      jump\t// in\n        /* \"contracts/DailyCheckInAttestation.sol\":194:222  IERC20 public immutable GMMC */\n    tag_7:\n      tag_27\n      immutable(\"0x5c4c6aa067b6f8e6cb38e6ab843832a94d1712d661a04d73c517d6a1931a9e5d\")\n      dup2\n      jump\n    tag_27:\n      mload(0x40)\n      sub(shl(0xa0, 0x01), 0x01)\n        /* \"#utility.yul\":1173:1205   */\n      swap1\n      swap2\n      and\n        /* \"#utility.yul\":1155:1206   */\n      dup2\n      mstore\n        /* \"#utility.yul\":1143:1145   */\n      0x20\n        /* \"#utility.yul\":1128:1146   */\n      add\n        /* \"contracts/DailyCheckInAttestation.sol\":194:222  IERC20 public immutable GMMC */\n      tag_17\n        /* \"#utility.yul\":996:1212   */\n      jump\n        /* \"contracts/DailyCheckInAttestation.sol\":228:248  address public owner */\n    tag_8:\n      sload(0x00)\n      tag_27\n      swap1\n      sub(shl(0xa0, 0x01), 0x01)\n      and\n      dup2\n      jump\n        /* \"contracts/DailyCheckInAttestation.sol\":297:335  uint256 public rewardAmount = 5 * 1e18 */\n    tag_9:\n      tag_19\n      sload(0x01)\n      dup2\n      jump\n        /* \"contracts/DailyCheckInAttestation.sol\":824:1291  function checkIn() external {... */\n    tag_12:\n        /* \"contracts/DailyCheckInAttestation.sol\":862:875  uint256 today */\n      0x00\n        /* \"contracts/DailyCheckInAttestation.sol\":878:899  block.timestamp / DAY */\n      tag_39\n        /* \"contracts/DailyCheckInAttestation.sol\":285:291  1 days */\n      0x015180\n        /* \"contracts/DailyCheckInAttestation.sol\":878:893  block.timestamp */\n      timestamp\n        /* \"contracts/DailyCheckInAttestation.sol\":878:899  block.timestamp / DAY */\n      tag_40\n      jump\t// in\n    tag_39:\n        /* \"contracts/DailyCheckInAttestation.sol\":938:948  msg.sender */\n      caller\n        /* \"contracts/DailyCheckInAttestation.sol\":909:926  CheckIn storage c */\n      0x00\n        /* \"contracts/DailyCheckInAttestation.sol\":929:949  checkIns[msg.sender] */\n      swap1\n      dup2\n      mstore\n        /* \"contracts/DailyCheckInAttestation.sol\":929:937  checkIns */\n      0x02\n        /* \"contracts/DailyCheckInAttestation.sol\":929:949  checkIns[msg.sender] */\n      0x20\n      mstore\n      0x40\n      swap1\n      keccak256\n        /* \"contracts/DailyCheckInAttestation.sol\":968:977  c.lastDay */\n      dup1\n      sload\n        /* \"contracts/DailyCheckInAttestation.sol\":862:899  uint256 today = block.timestamp / DAY */\n      swap2\n      swap3\n      pop\n        /* \"contracts/DailyCheckInAttestation.sol\":929:949  checkIns[msg.sender] */\n      swap1\n        /* \"contracts/DailyCheckInAttestation.sol\":968:985  c.lastDay < today */\n      dup3\n      gt\n        /* \"contracts/DailyCheckInAttestation.sol\":960:1008  require(c.lastDay < today, \"Already checked in\") */\n      tag_41\n      jumpi\n      mload(0x40)\n      shl(0xe5, 0x461bcd)\n      dup2\n      mstore\n        /* \"#utility.yul\":1981:1983   */\n      0x20\n        /* \"contracts/DailyCheckInAttestation.sol\":960:1008  require(c.lastDay < today, \"Already checked in\") */\n      0x04\n      dup3\n      add\n        /* \"#utility.yul\":1963:1984   */\n      mstore\n        /* \"#utility.yul\":2020:2022   */\n      0x12\n        /* \"#utility.yul\":2000:2018   */\n      0x24\n      dup3\n      add\n        /* \"#utility.yul\":1993:2023   */\n      mstore\n      shl(0x71, 0x20b63932b0b23c9031b432b1b5b2b21034b7)\n        /* \"#utility.yul\":2039:2057   */\n      0x44\n      dup3\n      add\n        /* \"#utility.yul\":2032:2080   */\n      mstore\n        /* \"#utility.yul\":2097:2115   */\n      0x64\n      add\n        /* \"contracts/DailyCheckInAttestation.sol\":960:1008  require(c.lastDay < today, \"Already checked in\") */\n    tag_42:\n      mload(0x40)\n      dup1\n      swap2\n      sub\n      swap1\n      revert\n    tag_41:\n        /* \"contracts/DailyCheckInAttestation.sol\":1036:1045  today - 1 */\n      tag_44\n        /* \"contracts/DailyCheckInAttestation.sol\":1044:1045  1 */\n      0x01\n        /* \"contracts/DailyCheckInAttestation.sol\":1036:1041  today */\n      dup4\n        /* \"contracts/DailyCheckInAttestation.sol\":1036:1045  today - 1 */\n      tag_45\n      jump\t// in\n    tag_44:\n        /* \"contracts/DailyCheckInAttestation.sol\":1023:1032  c.lastDay */\n      dup2\n      sload\n        /* \"contracts/DailyCheckInAttestation.sol\":1023:1045  c.lastDay == today - 1 */\n      sub\n        /* \"contracts/DailyCheckInAttestation.sol\":1019:1125  if (c.lastDay == today - 1) {... */\n      tag_46\n      jumpi\n        /* \"contracts/DailyCheckInAttestation.sol\":1061:1069  c.streak */\n      0x01\n      dup2\n      add\n        /* \"contracts/DailyCheckInAttestation.sol\":1061:1071  c.streak++ */\n      dup1\n      sload\n      swap1\n        /* \"contracts/DailyCheckInAttestation.sol\":1061:1069  c.streak */\n      0x00\n        /* \"contracts/DailyCheckInAttestation.sol\":1061:1071  c.streak++ */\n      tag_47\n      dup4\n      tag_48\n      jump\t// in\n    tag_47:\n      swap2\n      swap1\n      pop\n      sstore\n      pop\n        /* \"contracts/DailyCheckInAttestation.sol\":1019:1125  if (c.lastDay == today - 1) {... */\n      jump(tag_49)\n    tag_46:\n        /* \"contracts/DailyCheckInAttestation.sol\":1113:1114  1 */\n      0x01\n        /* \"contracts/DailyCheckInAttestation.sol\":1102:1110  c.streak */\n      dup2\n      dup2\n      add\n        /* \"contracts/DailyCheckInAttestation.sol\":1102:1114  c.streak = 1 */\n      sstore\n        /* \"contracts/DailyCheckInAttestation.sol\":1019:1125  if (c.lastDay == today - 1) {... */\n    tag_49:\n        /* \"contracts/DailyCheckInAttestation.sol\":1135:1152  c.lastDay = today */\n      dup2\n      dup2\n      sstore\n        /* \"contracts/DailyCheckInAttestation.sol\":1162:1169  c.total */\n      0x02\n      dup2\n      add\n        /* \"contracts/DailyCheckInAttestation.sol\":1162:1171  c.total++ */\n      dup1\n      sload\n      swap1\n        /* \"contracts/DailyCheckInAttestation.sol\":1135:1144  c.lastDay */\n      0x00\n        /* \"contracts/DailyCheckInAttestation.sol\":1162:1171  c.total++ */\n      tag_50\n      dup4\n      tag_48\n      jump\t// in\n    tag_50:\n      swap1\n      swap2\n      sstore\n      pop\n      pop\n        /* \"contracts/DailyCheckInAttestation.sol\":1208:1220  rewardAmount */\n      sload(0x01)\n        /* \"contracts/DailyCheckInAttestation.sol\":1182:1221  GMMC.transfer(msg.sender, rewardAmount) */\n      mload(0x40)\n      shl(0xe0, 0xa9059cbb)\n      dup2\n      mstore\n        /* \"contracts/DailyCheckInAttestation.sol\":1196:1206  msg.sender */\n      caller\n        /* \"contracts/DailyCheckInAttestation.sol\":1182:1221  GMMC.transfer(msg.sender, rewardAmount) */\n      0x04\n      dup3\n      add\n        /* \"#utility.yul\":2573:2624   */\n      mstore\n        /* \"#utility.yul\":2640:2658   */\n      0x24\n      dup2\n      add\n        /* \"#utility.yul\":2633:2667   */\n      swap2\n      swap1\n      swap2\n      mstore\n        /* \"contracts/DailyCheckInAttestation.sol\":1182:1186  GMMC */\n      immutable(\"0x5c4c6aa067b6f8e6cb38e6ab843832a94d1712d661a04d73c517d6a1931a9e5d\")\n      sub(shl(0xa0, 0x01), 0x01)\n        /* \"contracts/DailyCheckInAttestation.sol\":1182:1195  GMMC.transfer */\n      and\n      swap1\n      0xa9059cbb\n      swap1\n        /* \"#utility.yul\":2546:2564   */\n      0x44\n      add\n        /* \"contracts/DailyCheckInAttestation.sol\":1182:1221  GMMC.transfer(msg.sender, rewardAmount) */\n      0x20\n      mload(0x40)\n      dup1\n      dup4\n      sub\n      dup2\n      0x00\n      dup8\n      gas\n      call\n      iszero\n      dup1\n      iszero\n      tag_54\n      jumpi\n      returndatasize\n      0x00\n      dup1\n      returndatacopy\n      revert(0x00, returndatasize)\n    tag_54:\n      pop\n      pop\n      pop\n      pop\n      mload(0x40)\n      returndatasize\n      not(0x1f)\n      0x1f\n      dup3\n      add\n      and\n      dup3\n      add\n      dup1\n      0x40\n      mstore\n      pop\n      dup2\n      add\n      swap1\n      tag_55\n      swap2\n      swap1\n      tag_56\n      jump\t// in\n    tag_55:\n      pop\n        /* \"contracts/DailyCheckInAttestation.sol\":1266:1274  c.streak */\n      0x01\n      dup2\n      add\n      sload\n        /* \"contracts/DailyCheckInAttestation.sol\":1276:1283  c.total */\n      0x02\n      dup3\n      add\n      sload\n        /* \"contracts/DailyCheckInAttestation.sol\":1237:1284  CheckedIn(msg.sender, today, c.streak, c.total) */\n      0x40\n      dup1\n      mload\n        /* \"#utility.yul\":507:532   */\n      dup6\n      dup2\n      mstore\n        /* \"#utility.yul\":563:565   */\n      0x20\n        /* \"#utility.yul\":548:566   */\n      dup2\n      add\n        /* \"#utility.yul\":541:575   */\n      swap4\n      swap1\n      swap4\n      mstore\n        /* \"#utility.yul\":591:609   */\n      dup3\n      add\n        /* \"#utility.yul\":584:618   */\n      mstore\n        /* \"contracts/DailyCheckInAttestation.sol\":1247:1257  msg.sender */\n      caller\n      swap1\n        /* \"contracts/DailyCheckInAttestation.sol\":1237:1284  CheckedIn(msg.sender, today, c.streak, c.total) */\n      0x7e4c1be4a7f9736334ae1a21a54b75fe0b8ac49d1c72b89a21ec4802d4f6fabb\n      swap1\n        /* \"#utility.yul\":495:497   */\n      0x60\n        /* \"#utility.yul\":480:498   */\n      add\n        /* \"contracts/DailyCheckInAttestation.sol\":1237:1284  CheckedIn(msg.sender, today, c.streak, c.total) */\n      mload(0x40)\n      dup1\n      swap2\n      sub\n      swap1\n      log2\n        /* \"contracts/DailyCheckInAttestation.sol\":852:1291  {... */\n      pop\n      pop\n        /* \"contracts/DailyCheckInAttestation.sol\":824:1291  function checkIn() external {... */\n      jump\t// out\n        /* \"contracts/DailyCheckInAttestation.sol\":1297:1389  function setReward(uint256 amount) external onlyOwner {... */\n    tag_26:\n        /* \"contracts/DailyCheckInAttestation.sol\":671:676  owner */\n      and(sub(shl(0xa0, 0x01), 0x01), sload(0x00))\n        /* \"contracts/DailyCheckInAttestation.sol\":657:667  msg.sender */\n      caller\n        /* \"contracts/DailyCheckInAttestation.sol\":657:676  msg.sender == owner */\n      eq\n        /* \"contracts/DailyCheckInAttestation.sol\":649:690  require(msg.sender == owner, \"Not owner\") */\n      tag_59\n      jumpi\n      mload(0x40)\n      shl(0xe5, 0x461bcd)\n      dup2\n      mstore\n        /* \"#utility.yul\":3162:3164   */\n      0x20\n        /* \"contracts/DailyCheckInAttestation.sol\":649:690  require(msg.sender == owner, \"Not owner\") */\n      0x04\n      dup3\n      add\n        /* \"#utility.yul\":3144:3165   */\n      mstore\n        /* \"#utility.yul\":3201:3202   */\n      0x09\n        /* \"#utility.yul\":3181:3199   */\n      0x24\n      dup3\n      add\n        /* \"#utility.yul\":3174:3203   */\n      mstore\n      shl(0xb9, 0x2737ba1037bbb732b9)\n        /* \"#utility.yul\":3219:3237   */\n      0x44\n      dup3\n      add\n        /* \"#utility.yul\":3212:3251   */\n      mstore\n        /* \"#utility.yul\":3268:3286   */\n      0x64\n      add\n        /* \"contracts/DailyCheckInAttestation.sol\":649:690  require(msg.sender == owner, \"Not owner\") */\n      tag_42\n        /* \"#utility.yul\":2960:3292   */\n      jump\n        /* \"contracts/DailyCheckInAttestation.sol\":649:690  require(msg.sender == owner, \"Not owner\") */\n    tag_59:\n        /* \"contracts/DailyCheckInAttestation.sol\":1361:1373  rewardAmount */\n      0x01\n        /* \"contracts/DailyCheckInAttestation.sol\":1361:1382  rewardAmount = amount */\n      sstore\n        /* \"contracts/DailyCheckInAttestation.sol\":1297:1389  function setReward(uint256 amount) external onlyOwner {... */\n      jump\t// out\n        /* \"#utility.yul\":14:300   */\n    tag_15:\n        /* \"#utility.yul\":73:79   */\n      0x00\n        /* \"#utility.yul\":126:128   */\n      0x20\n        /* \"#utility.yul\":114:123   */\n      dup3\n        /* \"#utility.yul\":105:112   */\n      dup5\n        /* \"#utility.yul\":101:124   */\n      sub\n        /* \"#utility.yul\":97:129   */\n      slt\n        /* \"#utility.yul\":94:146   */\n      iszero\n      tag_66\n      jumpi\n        /* \"#utility.yul\":142:143   */\n      0x00\n        /* \"#utility.yul\":139:140   */\n      dup1\n        /* \"#utility.yul\":132:144   */\n      revert\n        /* \"#utility.yul\":94:146   */\n    tag_66:\n        /* \"#utility.yul\":168:191   */\n      dup2\n      calldataload\n      sub(shl(0xa0, 0x01), 0x01)\n        /* \"#utility.yul\":220:251   */\n      dup2\n      and\n        /* \"#utility.yul\":210:252   */\n      dup2\n      eq\n        /* \"#utility.yul\":200:270   */\n      tag_67\n      jumpi\n        /* \"#utility.yul\":266:267   */\n      0x00\n        /* \"#utility.yul\":263:264   */\n      dup1\n        /* \"#utility.yul\":256:268   */\n      revert\n        /* \"#utility.yul\":200:270   */\n    tag_67:\n        /* \"#utility.yul\":289:294   */\n      swap4\n        /* \"#utility.yul\":14:300   */\n      swap3\n      pop\n      pop\n      pop\n      jump\t// out\n        /* \"#utility.yul\":811:991   */\n    tag_25:\n        /* \"#utility.yul\":870:876   */\n      0x00\n        /* \"#utility.yul\":923:925   */\n      0x20\n        /* \"#utility.yul\":911:920   */\n      dup3\n        /* \"#utility.yul\":902:909   */\n      dup5\n        /* \"#utility.yul\":898:921   */\n      sub\n        /* \"#utility.yul\":894:926   */\n      slt\n        /* \"#utility.yul\":891:943   */\n      iszero\n      tag_71\n      jumpi\n        /* \"#utility.yul\":939:940   */\n      0x00\n        /* \"#utility.yul\":936:937   */\n      dup1\n        /* \"#utility.yul\":929:941   */\n      revert\n        /* \"#utility.yul\":891:943   */\n    tag_71:\n      pop\n        /* \"#utility.yul\":962:985   */\n      calldataload\n      swap2\n        /* \"#utility.yul\":811:991   */\n      swap1\n      pop\n      jump\t// out\n        /* \"#utility.yul\":1425:1552   */\n    tag_63:\n        /* \"#utility.yul\":1486:1496   */\n      0x4e487b71\n        /* \"#utility.yul\":1481:1484   */\n      0xe0\n        /* \"#utility.yul\":1477:1497   */\n      shl\n        /* \"#utility.yul\":1474:1475   */\n      0x00\n        /* \"#utility.yul\":1467:1498   */\n      mstore\n        /* \"#utility.yul\":1517:1521   */\n      0x11\n        /* \"#utility.yul\":1514:1515   */\n      0x04\n        /* \"#utility.yul\":1507:1522   */\n      mstore\n        /* \"#utility.yul\":1541:1545   */\n      0x24\n        /* \"#utility.yul\":1538:1539   */\n      0x00\n        /* \"#utility.yul\":1531:1546   */\n      revert\n        /* \"#utility.yul\":1557:1774   */\n    tag_40:\n        /* \"#utility.yul\":1597:1598   */\n      0x00\n        /* \"#utility.yul\":1623:1624   */\n      dup3\n        /* \"#utility.yul\":1613:1745   */\n      tag_76\n      jumpi\n        /* \"#utility.yul\":1667:1677   */\n      0x4e487b71\n        /* \"#utility.yul\":1662:1665   */\n      0xe0\n        /* \"#utility.yul\":1658:1678   */\n      shl\n        /* \"#utility.yul\":1655:1656   */\n      0x00\n        /* \"#utility.yul\":1648:1679   */\n      mstore\n        /* \"#utility.yul\":1702:1706   */\n      0x12\n        /* \"#utility.yul\":1699:1700   */\n      0x04\n        /* \"#utility.yul\":1692:1707   */\n      mstore\n        /* \"#utility.yul\":1730:1734   */\n      0x24\n        /* \"#utility.yul\":1727:1728   */\n      0x00\n        /* \"#utility.yul\":1720:1735   */\n      revert\n        /* \"#utility.yul\":1613:1745   */\n    tag_76:\n      pop\n        /* \"#utility.yul\":1759:1768   */\n      div\n      swap1\n        /* \"#utility.yul\":1557:1774   */\n      jump\t// out\n        /* \"#utility.yul\":2126:2254   */\n    tag_45:\n        /* \"#utility.yul\":2193:2202   */\n      dup2\n      dup2\n      sub\n        /* \"#utility.yul\":2214:2225   */\n      dup2\n      dup2\n      gt\n        /* \"#utility.yul\":2211:2248   */\n      iszero\n      tag_80\n      jumpi\n        /* \"#utility.yul\":2228:2246   */\n      tag_80\n      tag_63\n      jump\t// in\n    tag_80:\n        /* \"#utility.yul\":2126:2254   */\n      swap3\n      swap2\n      pop\n      pop\n      jump\t// out\n        /* \"#utility.yul\":2259:2394   */\n    tag_48:\n        /* \"#utility.yul\":2298:2301   */\n      0x00\n        /* \"#utility.yul\":2319:2336   */\n      0x01\n      dup3\n      add\n        /* \"#utility.yul\":2316:2359   */\n      tag_83\n      jumpi\n        /* \"#utility.yul\":2339:2357   */\n      tag_83\n      tag_63\n      jump\t// in\n    tag_83:\n      pop\n        /* \"#utility.yul\":2386:2387   */\n      0x01\n        /* \"#utility.yul\":2375:2388   */\n      add\n      swap1\n        /* \"#utility.yul\":2259:2394   */\n      jump\t// out\n        /* \"#utility.yul\":2678:2955   */\n    tag_56:\n        /* \"#utility.yul\":2745:2751   */\n      0x00\n        /* \"#utility.yul\":2798:2800   */\n      0x20\n        /* \"#utility.yul\":2786:2795   */\n      dup3\n        /* \"#utility.yul\":2777:2784   */\n      dup5\n        /* \"#utility.yul\":2773:2796   */\n      sub\n        /* \"#utility.yul\":2769:2801   */\n      slt\n        /* \"#utility.yul\":2766:2818   */\n      iszero\n      tag_86\n      jumpi\n        /* \"#utility.yul\":2814:2815   */\n      0x00\n        /* \"#utility.yul\":2811:2812   */\n      dup1\n        /* \"#utility.yul\":2804:2816   */\n      revert\n        /* \"#utility.yul\":2766:2818   */\n    tag_86:\n        /* \"#utility.yul\":2846:2855   */\n      dup2\n        /* \"#utility.yul\":2840:2856   */\n      mload\n        /* \"#utility.yul\":2899:2904   */\n      dup1\n        /* \"#utility.yul\":2892:2905   */\n      iszero\n        /* \"#utility.yul\":2885:2906   */\n      iszero\n        /* \"#utility.yul\":2878:2883   */\n      dup2\n        /* \"#utility.yul\":2875:2907   */\n      eq\n        /* \"#utility.yul\":2865:2925   */\n      tag_67\n      jumpi\n        /* \"#utility.yul\":2921:2922   */\n      0x00\n        /* \"#utility.yul\":2918:2919   */\n      dup1\n        /* \"#utility.yul\":2911:2923   */\n      revert\n\n    auxdata: 0xa2646970667358221220eb3f23410ea646de17b870a125e8498ab054918143e4845c2976381077d7f5f664736f6c63430008140033\n}\n",
				"bytecode": {
					"linkReferences": {},
					"object": "60a0604052674563918244f4000060015534801561001b575f80fd5b5060405161050638038061050683398101604081905261003a9161007c565b6001600160a01b039182166080525f80546001600160a01b031916919092161790556100ad565b80516001600160a01b0381168114610077575f80fd5b919050565b5f806040838503121561008d575f80fd5b61009683610061565b91506100a460208401610061565b90509250929050565b60805161043a6100cc5f395f81816101050152610231015261043a5ff3fe608060405234801561000f575f80fd5b506004361061007a575f3560e01c8063293be45611610058578063293be456146100ed5780636c82da76146101005780638da5cb5b1461013f578063f7b2a7be14610151575f80fd5b8063183ff0851461007e5780631acc9b621461008857806327cfe856146100d5575b5f80fd5b61008661015a565b005b6100b561009636600461033d565b600260208190525f918252604090912080546001820154919092015483565b604080519384526020840192909252908201526060015b60405180910390f35b6100df6201518081565b6040519081526020016100cc565b6100866100fb36600461036a565b6102f3565b6101277f000000000000000000000000000000000000000000000000000000000000000081565b6040516001600160a01b0390911681526020016100cc565b5f54610127906001600160a01b031681565b6100df60015481565b5f6101686201518042610395565b335f90815260026020526040902080549192509082116101c45760405162461bcd60e51b815260206004820152601260248201527120b63932b0b23c9031b432b1b5b2b21034b760711b60448201526064015b60405180910390fd5b6101cf6001836103b4565b8154036101f157600181018054905f6101e7836103cd565b91905055506101f8565b6001818101555b818155600281018054905f61020c836103cd565b909155505060015460405163a9059cbb60e01b815233600482015260248101919091527f00000000000000000000000000000000000000000000000000000000000000006001600160a01b03169063a9059cbb906044016020604051808303815f875af115801561027f573d5f803e3d5ffd5b505050506040513d601f19601f820116820180604052508101906102a391906103e5565b506001810154600282015460408051858152602081019390935282015233907f7e4c1be4a7f9736334ae1a21a54b75fe0b8ac49d1c72b89a21ec4802d4f6fabb9060600160405180910390a25050565b5f546001600160a01b031633146103385760405162461bcd60e51b81526020600482015260096024820152682737ba1037bbb732b960b91b60448201526064016101bb565b600155565b5f6020828403121561034d575f80fd5b81356001600160a01b0381168114610363575f80fd5b9392505050565b5f6020828403121561037a575f80fd5b5035919050565b634e487b7160e01b5f52601160045260245ffd5b5f826103af57634e487b7160e01b5f52601260045260245ffd5b500490565b818103818111156103c7576103c7610381565b92915050565b5f600182016103de576103de610381565b5060010190565b5f602082840312156103f5575f80fd5b81518015158114610363575f80fdfea2646970667358221220eb3f23410ea646de17b870a125e8498ab054918143e4845c2976381077d7f5f664736f6c63430008140033",
					"opcodes": "PUSH1 0xA0 PUSH1 0x40 MSTORE PUSH8 0x4563918244F40000 PUSH1 0x1 SSTORE CALLVALUE DUP1 ISZERO PUSH2 0x1B JUMPI PUSH0 DUP1 REVERT JUMPDEST POP PUSH1 0x40 MLOAD PUSH2 0x506 CODESIZE SUB DUP1 PUSH2 0x506 DUP4 CODECOPY DUP2 ADD PUSH1 0x40 DUP2 SWAP1 MSTORE PUSH2 0x3A SWAP2 PUSH2 0x7C JUMP JUMPDEST PUSH1 0x1 PUSH1 0x1 PUSH1 0xA0 SHL SUB SWAP2 DUP3 AND PUSH1 0x80 MSTORE PUSH0 DUP1 SLOAD PUSH1 0x1 PUSH1 0x1 PUSH1 0xA0 SHL SUB NOT AND SWAP2 SWAP1 SWAP3 AND OR SWAP1 SSTORE PUSH2 0xAD JUMP JUMPDEST DUP1 MLOAD PUSH1 0x1 PUSH1 0x1 PUSH1 0xA0 SHL SUB DUP2 AND DUP2 EQ PUSH2 0x77 JUMPI PUSH0 DUP1 REVERT JUMPDEST SWAP2 SWAP1 POP JUMP JUMPDEST PUSH0 DUP1 PUSH1 0x40 DUP4 DUP6 SUB SLT ISZERO PUSH2 0x8D JUMPI PUSH0 DUP1 REVERT JUMPDEST PUSH2 0x96 DUP4 PUSH2 0x61 JUMP JUMPDEST SWAP2 POP PUSH2 0xA4 PUSH1 0x20 DUP5 ADD PUSH2 0x61 JUMP JUMPDEST SWAP1 POP SWAP3 POP SWAP3 SWAP1 POP JUMP JUMPDEST PUSH1 0x80 MLOAD PUSH2 0x43A PUSH2 0xCC PUSH0 CODECOPY PUSH0 DUP2 DUP2 PUSH2 0x105 ADD MSTORE PUSH2 0x231 ADD MSTORE PUSH2 0x43A PUSH0 RETURN INVALID PUSH1 0x80 PUSH1 0x40 MSTORE CALLVALUE DUP1 ISZERO PUSH2 0xF JUMPI PUSH0 DUP1 REVERT JUMPDEST POP PUSH1 0x4 CALLDATASIZE LT PUSH2 0x7A JUMPI PUSH0 CALLDATALOAD PUSH1 0xE0 SHR DUP1 PUSH4 0x293BE456 GT PUSH2 0x58 JUMPI DUP1 PUSH4 0x293BE456 EQ PUSH2 0xED JUMPI DUP1 PUSH4 0x6C82DA76 EQ PUSH2 0x100 JUMPI DUP1 PUSH4 0x8DA5CB5B EQ PUSH2 0x13F JUMPI DUP1 PUSH4 0xF7B2A7BE EQ PUSH2 0x151 JUMPI PUSH0 DUP1 REVERT JUMPDEST DUP1 PUSH4 0x183FF085 EQ PUSH2 0x7E JUMPI DUP1 PUSH4 0x1ACC9B62 EQ PUSH2 0x88 JUMPI DUP1 PUSH4 0x27CFE856 EQ PUSH2 0xD5 JUMPI JUMPDEST PUSH0 DUP1 REVERT JUMPDEST PUSH2 0x86 PUSH2 0x15A JUMP JUMPDEST STOP JUMPDEST PUSH2 0xB5 PUSH2 0x96 CALLDATASIZE PUSH1 0x4 PUSH2 0x33D JUMP JUMPDEST PUSH1 0x2 PUSH1 0x20 DUP2 SWAP1 MSTORE PUSH0 SWAP2 DUP3 MSTORE PUSH1 0x40 SWAP1 SWAP2 KECCAK256 DUP1 SLOAD PUSH1 0x1 DUP3 ADD SLOAD SWAP2 SWAP1 SWAP3 ADD SLOAD DUP4 JUMP JUMPDEST PUSH1 0x40 DUP1 MLOAD SWAP4 DUP5 MSTORE PUSH1 0x20 DUP5 ADD SWAP3 SWAP1 SWAP3 MSTORE SWAP1 DUP3 ADD MSTORE PUSH1 0x60 ADD JUMPDEST PUSH1 0x40 MLOAD DUP1 SWAP2 SUB SWAP1 RETURN JUMPDEST PUSH2 0xDF PUSH3 0x15180 DUP2 JUMP JUMPDEST PUSH1 0x40 MLOAD SWAP1 DUP2 MSTORE PUSH1 0x20 ADD PUSH2 0xCC JUMP JUMPDEST PUSH2 0x86 PUSH2 0xFB CALLDATASIZE PUSH1 0x4 PUSH2 0x36A JUMP JUMPDEST PUSH2 0x2F3 JUMP JUMPDEST PUSH2 0x127 PUSH32 0x0 DUP2 JUMP JUMPDEST PUSH1 0x40 MLOAD PUSH1 0x1 PUSH1 0x1 PUSH1 0xA0 SHL SUB SWAP1 SWAP2 AND DUP2 MSTORE PUSH1 0x20 ADD PUSH2 0xCC JUMP JUMPDEST PUSH0 SLOAD PUSH2 0x127 SWAP1 PUSH1 0x1 PUSH1 0x1 PUSH1 0xA0 SHL SUB AND DUP2 JUMP JUMPDEST PUSH2 0xDF PUSH1 0x1 SLOAD DUP2 JUMP JUMPDEST PUSH0 PUSH2 0x168 PUSH3 0x15180 TIMESTAMP PUSH2 0x395 JUMP JUMPDEST CALLER PUSH0 SWAP1 DUP2 MSTORE PUSH1 0x2 PUSH1 0x20 MSTORE PUSH1 0x40 SWAP1 KECCAK256 DUP1 SLOAD SWAP2 SWAP3 POP SWAP1 DUP3 GT PUSH2 0x1C4 JUMPI PUSH1 0x40 MLOAD PUSH3 0x461BCD PUSH1 0xE5 SHL DUP2 MSTORE PUSH1 0x20 PUSH1 0x4 DUP3 ADD MSTORE PUSH1 0x12 PUSH1 0x24 DUP3 ADD MSTORE PUSH18 0x20B63932B0B23C9031B432B1B5B2B21034B7 PUSH1 0x71 SHL PUSH1 0x44 DUP3 ADD MSTORE PUSH1 0x64 ADD JUMPDEST PUSH1 0x40 MLOAD DUP1 SWAP2 SUB SWAP1 REVERT JUMPDEST PUSH2 0x1CF PUSH1 0x1 DUP4 PUSH2 0x3B4 JUMP JUMPDEST DUP2 SLOAD SUB PUSH2 0x1F1 JUMPI PUSH1 0x1 DUP2 ADD DUP1 SLOAD SWAP1 PUSH0 PUSH2 0x1E7 DUP4 PUSH2 0x3CD JUMP JUMPDEST SWAP2 SWAP1 POP SSTORE POP PUSH2 0x1F8 JUMP JUMPDEST PUSH1 0x1 DUP2 DUP2 ADD SSTORE JUMPDEST DUP2 DUP2 SSTORE PUSH1 0x2 DUP2 ADD DUP1 SLOAD SWAP1 PUSH0 PUSH2 0x20C DUP4 PUSH2 0x3CD JUMP JUMPDEST SWAP1 SWAP2 SSTORE POP POP PUSH1 0x1 SLOAD PUSH1 0x40 MLOAD PUSH4 0xA9059CBB PUSH1 0xE0 SHL DUP2 MSTORE CALLER PUSH1 0x4 DUP3 ADD MSTORE PUSH1 0x24 DUP2 ADD SWAP2 SWAP1 SWAP2 MSTORE PUSH32 0x0 PUSH1 0x1 PUSH1 0x1 PUSH1 0xA0 SHL SUB AND SWAP1 PUSH4 0xA9059CBB SWAP1 PUSH1 0x44 ADD PUSH1 0x20 PUSH1 0x40 MLOAD DUP1 DUP4 SUB DUP2 PUSH0 DUP8 GAS CALL ISZERO DUP1 ISZERO PUSH2 0x27F JUMPI RETURNDATASIZE PUSH0 DUP1 RETURNDATACOPY RETURNDATASIZE PUSH0 REVERT JUMPDEST POP POP POP POP PUSH1 0x40 MLOAD RETURNDATASIZE PUSH1 0x1F NOT PUSH1 0x1F DUP3 ADD AND DUP3 ADD DUP1 PUSH1 0x40 MSTORE POP DUP2 ADD SWAP1 PUSH2 0x2A3 SWAP2 SWAP1 PUSH2 0x3E5 JUMP JUMPDEST POP PUSH1 0x1 DUP2 ADD SLOAD PUSH1 0x2 DUP3 ADD SLOAD PUSH1 0x40 DUP1 MLOAD DUP6 DUP2 MSTORE PUSH1 0x20 DUP2 ADD SWAP4 SWAP1 SWAP4 MSTORE DUP3 ADD MSTORE CALLER SWAP1 PUSH32 0x7E4C1BE4A7F9736334AE1A21A54B75FE0B8AC49D1C72B89A21EC4802D4F6FABB SWAP1 PUSH1 0x60 ADD PUSH1 0x40 MLOAD DUP1 SWAP2 SUB SWAP1 LOG2 POP POP JUMP JUMPDEST PUSH0 SLOAD PUSH1 0x1 PUSH1 0x1 PUSH1 0xA0 SHL SUB AND CALLER EQ PUSH2 0x338 JUMPI PUSH1 0x40 MLOAD PUSH3 0x461BCD PUSH1 0xE5 SHL DUP2 MSTORE PUSH1 0x20 PUSH1 0x4 DUP3 ADD MSTORE PUSH1 0x9 PUSH1 0x24 DUP3 ADD MSTORE PUSH9 0x2737BA1037BBB732B9 PUSH1 0xB9 SHL PUSH1 0x44 DUP3 ADD MSTORE PUSH1 0x64 ADD PUSH2 0x1BB JUMP JUMPDEST PUSH1 0x1 SSTORE JUMP JUMPDEST PUSH0 PUSH1 0x20 DUP3 DUP5 SUB SLT ISZERO PUSH2 0x34D JUMPI PUSH0 DUP1 REVERT JUMPDEST DUP2 CALLDATALOAD PUSH1 0x1 PUSH1 0x1 PUSH1 0xA0 SHL SUB DUP2 AND DUP2 EQ PUSH2 0x363 JUMPI PUSH0 DUP1 REVERT JUMPDEST SWAP4 SWAP3 POP POP POP JUMP JUMPDEST PUSH0 PUSH1 0x20 DUP3 DUP5 SUB SLT ISZERO PUSH2 0x37A JUMPI PUSH0 DUP1 REVERT JUMPDEST POP CALLDATALOAD SWAP2 SWAP1 POP JUMP JUMPDEST PUSH4 0x4E487B71 PUSH1 0xE0 SHL PUSH0 MSTORE PUSH1 0x11 PUSH1 0x4 MSTORE PUSH1 0x24 PUSH0 REVERT JUMPDEST PUSH0 DUP3 PUSH2 0x3AF JUMPI PUSH4 0x4E487B71 PUSH1 0xE0 SHL PUSH0 MSTORE PUSH1 0x12 PUSH1 0x4 MSTORE PUSH1 0x24 PUSH0 REVERT JUMPDEST POP DIV SWAP1 JUMP JUMPDEST DUP2 DUP2 SUB DUP2 DUP2 GT ISZERO PUSH2 0x3C7 JUMPI PUSH2 0x3C7 PUSH2 0x381 JUMP JUMPDEST SWAP3 SWAP2 POP POP JUMP JUMPDEST PUSH0 PUSH1 0x1 DUP3 ADD PUSH2 0x3DE JUMPI PUSH2 0x3DE PUSH2 0x381 JUMP JUMPDEST POP PUSH1 0x1 ADD SWAP1 JUMP JUMPDEST PUSH0 PUSH1 0x20 DUP3 DUP5 SUB SLT ISZERO PUSH2 0x3F5 JUMPI PUSH0 DUP1 REVERT JUMPDEST DUP2 MLOAD DUP1 ISZERO ISZERO DUP2 EQ PUSH2 0x363 JUMPI PUSH0 DUP1 REVERT INVALID LOG2 PUSH5 0x6970667358 0x22 SLT KECCAK256 0xEB EXTCODEHASH 0x23 COINBASE 0xE 0xA6 CHAINID 0xDE OR 0xB8 PUSH17 0xA125E8498AB054918143E4845C29763810 PUSH24 0xD7F5F664736F6C6343000814003300000000000000000000 "
				},
				"gasEstimates": {
					"creation": {
						"codeDepositCost": "216400",
						"executionCost": "infinite",
						"totalCost": "infinite"
					},
					"external": {
						"DAY()": "239",
						"GMMC()": "infinite",
						"checkIn()": "infinite",
						"checkIns(address)": "6768",
						"owner()": "2379",
						"rewardAmount()": "2360",
						"setReward(uint256)": "24461"
					}
				},
				"methodIdentifiers": {
					"DAY()": "27cfe856",
					"GMMC()": "6c82da76",
					"checkIn()": "183ff085",
					"checkIns(address)": "1acc9b62",
					"owner()": "8da5cb5b",
					"rewardAmount()": "f7b2a7be",
					"setReward(uint256)": "293be456"
				}
			},
			"storageLayout": {
				"storage": [
					{
						"astId": 16,
						"contract": "contracts/DailyCheckInAttestation.sol:DailyCheckInAttestation",
						"label": "owner",
						"offset": 0,
						"slot": "0",
						"type": "t_address"
					},
					{
						"astId": 24,
						"contract": "contracts/DailyCheckInAttestation.sol:DailyCheckInAttestation",
						"label": "rewardAmount",
						"offset": 0,
						"slot": "1",
						"type": "t_uint256"
					},
					{
						"astId": 36,
						"contract": "contracts/DailyCheckInAttestation.sol:DailyCheckInAttestation",
						"label": "checkIns",
						"offset": 0,
						"slot": "2",
						"type": "t_mapping(t_address,t_struct(CheckIn)31_storage)"
					}
				],
				"types": {
					"t_address": {
						"encoding": "inplace",
						"label": "address",
						"numberOfBytes": "20"
					},
					"t_mapping(t_address,t_struct(CheckIn)31_storage)": {
						"encoding": "mapping",
						"key": "t_address",
						"label": "mapping(address => struct DailyCheckInAttestation.CheckIn)",
						"numberOfBytes": "32",
						"value": "t_struct(CheckIn)31_storage"
					},
					"t_struct(CheckIn)31_storage": {
						"encoding": "inplace",
						"label": "struct DailyCheckInAttestation.CheckIn",
						"members": [
							{
								"astId": 26,
								"contract": "contracts/DailyCheckInAttestation.sol:DailyCheckInAttestation",
								"label": "lastDay",
								"offset": 0,
								"slot": "0",
								"type": "t_uint256"
							},
							{
								"astId": 28,
								"contract": "contracts/DailyCheckInAttestation.sol:DailyCheckInAttestation",
								"label": "streak",
								"offset": 0,
								"slot": "1",
								"type": "t_uint256"
							},
							{
								"astId": 30,
								"contract": "contracts/DailyCheckInAttestation.sol:DailyCheckInAttestation",
								"label": "total",
								"offset": 0,
								"slot": "2",
								"type": "t_uint256"
							}
						],
						"numberOfBytes": "96"
					},
					"t_uint256": {
						"encoding": "inplace",
						"label": "uint256",
						"numberOfBytes": "32"
					}
				}
			},
			"userdoc": {
				"kind": "user",
				"methods": {},
				"version": 1
			}
		}
	}
}